:100000000C9462000C948A000C948A000C948A0070
:100010000C948A000C948A000C948A000C948A0038
:100020000C948A000C948A000C948A000C948A0028
:100030000C948A000C948A000C948A000C948A0018
:100040000C94C3030C948A000C94CA010C948A008B
:100050000C948A000C948A000C948A000C948A00F8
:100060000C948A000C948A000000000024002700F1
:100070002A0000000000250028002B0000000000DE
:1000800023002600290004040404040404040202DA
:100090000202020203030303030301020408102007
:1000A0004080010204081020010204081020000012
:1000B0000007000201000003040600000000000029
:1000C0000000830211241FBECFEFD8E0DEBFCDBFFA
:1000D00011E0A0E0B1E0EAEBFBE002C005900D9278
:1000E000AC33B107D9F711E0ACE3B1E001C01D9228
:1000F000A03EB107E1F710E0C4ECD0E004C02297C5
:10010000FE010E94D705C23CD107C9F70E94C30176
:100110000C94DB050C9400008091290160E00E94A2
:10012000D50480912B0161E00E94D50480912D01BE
:1001300060E00E94D50480912F0161E00E94D50407
:10014000089582EC91E060E071E00E94E902809104
:10015000270160E00E94D50468EC70E080E090E048
:100160000E9433048091270161E00E94D50468EC6D
:1001700070E080E090E00E9433048091270160E00D
:100180000E94D50468EC70E080E090E00E943304A7
:100190008091270161E00E94D50468EC70E080E066
:1001A00090E00E9433048091270160E00E94D50412
:1001B00068EB7BE080E090E00E94330480912701AF
:1001C00061E00E94D504089582EC91E069E071E05D
:1001D0000E94E9028091290161E00E94D50480918A
:1001E0002B0160E00E94D50480912D0160E00E9407
:1001F000D50480912F0161E00E94D50468EE73E080
:1002000080E090E00E943304089582EC91E065E183
:1002100071E00E94E9028091290161E00E94D50409
:1002200080912B0160E00E94D50480912D0161E056
:100230000E94D50480912F0160E00E94D5046EEEEB
:1002400072E080E090E00E943304089582EC91E037
:100250006DE171E00E94E9028091290160E00E9455
:10026000D50480912B0160E00E94D50480912D017E
:1002700060E00E94D50480912F0160E00E94D504C7
:1002800068EE73E080E090E00E943304089580916E
:1002900025010E942205019731F5809133010E94CA
:1002A0009704BC0190933D0180933C0182EC91E066
:1002B0000E94B30380913C0190913D018D3C9105DA
:1002C0007CF08D3C910519F10E9426010E94A1004D
:1002D0000E9405010E9426010E94E4000E9426015E
:1002E0000E948C0008958091290160E00E94D5044D
:1002F00080912B0160E00E94D50480912D0160E087
:100300000E94D50480912F0160E00E94D5040895D9
:100310008091250160E00E94B5048091270161E091
:100320000E94B5048091290161E00E94B50480918A
:100330002B0161E00E94B50480912D0161E00E94D3
:10034000B50480912F0161E00E94B50480913101D4
:1003500061E00E94B5048091330160E00E94B50421
:100360008091310161E00E94D5048091270161E014
:100370000E94D50482EC91E040E855E260E070E034
:100380000E94070208950E945D040E9488010E9455
:100390004701FDCF1F920F920FB60F9211242F939A
:1003A0003F934F935F936F937F938F939F93AF93FD
:1003B000BF93EF93FF934091C600E091BE01F0918F
:1003C000BF01CF01019660E870E00E9471059C01B9
:1003D0008091C0019091C1012817390739F0E25C82
:1003E000FE4F40833093BF012093BE01FF91EF91F8
:1003F000BF91AF919F918F917F916F915F914F913D
:100400003F912F910F900FBE0F901F901895AF92B4
:10041000BF92CF92DF92EF92FF920F931F93CF93F1
:10042000DF936C017A018B01DC011496AD90BC90D6
:100430001597CB01BA0122E030E040E050E00E9485
:10044000A605205C3D4B404F5F4FCA01B901A80192
:1004500097010E94A605C901DA010197A109B10916
:10046000292F3A2F4B2F552747FD5A950196A11D4D
:10047000B11DE5012883E601EE81FF818150808373
:10048000EA85FB85208141E050E0CA010E8402C06C
:10049000880F991F0A94E2F7282B2083EA85FB85B1
:1004A0002081CA010F8402C0880F991F0A94E2F7C5
:1004B000282B2083EA85FB858081088802C0440FB1
:1004C000551F0A94E2F7842B8083DF91CF911F910F
:1004D0000F91FF90EF90DF90CF90BF90AF90089575
:1004E000FC01A085B18521898C9190E0022E02C08B
:1004F000959587950A94E2F780FFF6CF0484F585F9
:10050000E02D608308958AE391E09093C301809386
:10051000C2018EE391E09093C5018093C40185EC04
:1005200090E09093C7018093C60184EC90E0909393
:10053000C9018093C80180EC90E09093CB01809337
:10054000CA0181EC90E09093CD018093CC0186ECC0
:1005500090E09093CF018093CE0184E08093D0010E
:1005600083E08093D10187E08093D20185E080937E
:10057000D30108950F931F93CF93DF938C01EB0169
:1005800009C02196D801ED91FC910190F081E02DF8
:10059000C801099568816623A1F7DF91CF911F916A
:1005A0000F9108950F931F938C01DC01ED91FC9145
:1005B0000190F081E02D6DE00995D801ED91FC915D
:1005C0000190F081E02DC8016AE009951F910F911B
:1005D00008950F931F938C010E94BA02C8010E94D4
:1005E000D2021F910F9108952F923F924F925F92E6
:1005F0006F927F928F929F92AF92BF92CF92DF9233
:10060000EF92FF920F931F93DF93CF93CDB7DEB797
:10061000A0970FB6F894DEBF0FBECDBF1C016A01D4
:100620007B01411551056105710549F4DC01ED912E
:10063000FC910190F081E02D60E3099554C088247D
:1006400099245401422E55246624772401E010E0B9
:100650000C0F1D1F080D191DC701B601A301920142
:100660000E948405F80160830894811C911CA11CE0
:10067000B11CC701B601A30192010E948405C90102
:10068000DA016C017D01C114D104E104F104F1F639
:1006900081E0E82EF12CEC0EFD1EE80CF91C3E0169
:1006A0000894611C711CD501C4010197A109B1090D
:1006B0006C01C818D90814C0F601EE0DFF1D608149
:1006C0006A3010F4605D01C0695CD101ED91FC916C
:1006D0000190F081E02DC10109950894E108F1082D
:1006E0006E147F0449F7A0960FB6F894DEBF0FBED4
:1006F000CDBFCF91DF911F910F91FF90EF90DF90D1
:10070000CF90BF90AF909F908F907F906F905F90B1
:100710004F903F902F900895EF92FF920F931F9369
:10072000CF93DF93EC017A018B0177FF0FC0E88153
:10073000F9810190F081E02D6DE209951095009509
:10074000F094E094E11CF11C011D111DCE01B801D3
:10075000A7012AE00E94F402DF91CF911F910F912F
:10076000FF90EF9008950F931F938C01AB016627C4
:1007700057FD6095762F0E948C03C8010E94D2021B
:100780001F910F9108951F920F920FB60F9211248F
:100790002F938F939F93AF93BF938091D4019091A8
:1007A000D501A091D601B091D7010196A11DB11D2F
:1007B0008093D4019093D501A093D601B093D70133
:1007C0008091D8019091D901A091DA01B091DB011B
:1007D0008050904CAF4FBF4F8093D8019093D90178
:1007E000A093DA01B093DB0127C08091D8019091EA
:1007F000D901A091DA01B091DB0180589E43A0405D
:10080000B0408093D8019093D901A093DA01B093BE
:10081000DB018091DC019091DD01A091DE01B091BE
:10082000DF010196A11DB11D8093DC019093DD01D4
:10083000A093DE01B093DF018091D8019091D9019E
:10084000A091DA01B091DB0181589E43A040B040F5
:1008500060F6BF91AF919F918F912F910F900FBE36
:100860000F901F901895EF92FF920F931F937B01AB
:100870008C018FB7F8944091DC015091DD016091BB
:10088000DE017091DF018FBF2FB7F8948091DC01FA
:100890009091DD01A091DE01B091DF012FBF841B9B
:1008A000950BA60BB70BE816F9060A071B0760F7AE
:1008B0001F910F91FF90EF900895789484B5826016
:1008C00084BD84B5816084BD85B5826085BD85B5F4
:1008D000816085BDEEE6F0E0808181608083E1E8A3
:1008E000F0E0808182608083808181608083E0E8A5
:1008F000F0E0808181608083E1EBF0E080818460C2
:100900008083E0EBF0E0808181608083EAE7F0E0C3
:100910008081846080838081826080838081816027
:1009200080838081806880831092C10008958770E1
:10093000909135019295990F990F907C982B9093F7
:100940007C0080917A00806480937A0080917A00A4
:1009500086FDFCCF2091780040917900942F80E0B3
:1009600030E0282B392BC9010895282F30E0C90128
:1009700086569F4FFC0194912A573F4FF90184916D
:10098000882391F0E82FF0E0EE0FFF1FE859FF4FAA
:10099000A591B491662329F48C91909589238C9329
:1009A00008958C91892B8C930895482F50E0CA01AB
:1009B00082559F4FFC012491CA0186569F4FFC012E
:1009C00094914A575F4FFA0134913323D1F1222396
:1009D00031F1233021F4809180008F7705C02430DD
:1009E00031F4809180008F7D8093800018C0213089
:1009F00019F484B58F7704C0223021F484B58F7D3B
:100A000084BD0DC0263021F48091B0008F7705C0E1
:100A1000273029F48091B0008F7D8093B000E32FC0
:100A2000F0E0EE0FFF1FEE58FF4FA591B491662343
:100A300029F48C91909589238C9308958C91892B1E
:100A40008C930895682F70E0CB0182559F4FFC0175
:100A50002491CB0186569F4FFC0144916A577F4FEA
:100A6000FB019491992319F420E030E038C022234F
:100A700031F1233021F4809180008F7705C024303C
:100A800031F4809180008F7D8093800018C02130E8
:100A900019F484B58F7704C0223021F484B58F7D9A
:100AA00084BD0DC0263021F48091B0008F7705C041
:100AB000273029F48091B0008F7D8093B000892F7A
:100AC00090E0880F991F84589F4FFC01A591B49125
:100AD0008C9120E030E0842311F021E030E0C90166
:100AE000089597FB092E07260AD077FD04D049D038
:100AF00006D000201AF4709561957F4F0895F6F79F
:100B0000909581959F4F0895A1E21A2EAA1BBB1BB9
:100B1000FD010DC0AA1FBB1FEE1FFF1FA217B307C9
:100B2000E407F50720F0A21BB30BE40BF50B661FDF
:100B3000771F881F991F1A9469F7609570958095A3
:100B400090959B01AC01BD01CF01089597FB092E43
:100B500005260ED057FD04D0D7DF0AD0001C38F48C
:100B600050954095309521953F4F4F4F5F4F0895D9
:100B7000F6F790958095709561957F4F8F4F9F4FB9
:100B80000895AA1BBB1B51E107C0AA1FBB1FA617D4
:100B9000B70710F0A61BB70B881F991F5A95A9F726
:100BA00080959095BC01CD010895EE0FFF1F059033
:0A0BB000F491E02D0994F894FFCFB2
:100BBA006C69676874207570007069766F74206C50
:100BCA006566742100726576657273650073746F69
:100BDA00707065640002000D00030004000700083D
:0C0BEA0000090001000100000000700282
:00000001FF
