:100000000C9462000C948A000C948A000C948A0070
:100010000C948A000C948A000C948A000C948A0038
:100020000C948A000C948A000C948A000C948A0028
:100030000C948A000C948A000C948A000C948A0018
:100040000C949E030C948A000C94A5010C948A00D5
:100050000C948A000C948A000C948A000C948A00F8
:100060000C948A000C948A000000000024002700F1
:100070002A0000000000250028002B0000000000DE
:1000800023002600290004040404040404040202DA
:100090000202020203030303030301020408102007
:1000A0004080010204081020010204081020000012
:1000B0000007000201000003040600000000000029
:1000C00000005E0211241FBECFEFD8E0DEBFCDBF1F
:1000D00011E0A0E0B1E0E0E7FBE002C005900D9286
:1000E000AE33B107D9F711E0AEE3B1E001C01D9224
:1000F000A23EB107E1F710E0C4ECD0E004C02297C3
:10010000FE010E94B205C23CD107C9F70E949E01C0
:100110000C94B6050C94000080912A0160E00E94C6
:10012000B00480912C0161E00E94B00480912E0106
:1001300061E00E94B0048091300160E00E94B00450
:10014000089584EC91E060E071E00E94C402809127
:10015000280160E00E94B00468EC70E080E090E06C
:100160000E940E048091280161E00E94B00468ECB6
:1001700070E080E090E00E940E048091280160E031
:100180000E94B00468EC70E080E090E00E940E04F1
:100190008091280161E00E94B00468EC70E080E08A
:1001A00090E00E940E048091280160E00E94B0045B
:1001B00068EB7BE080E090E00E940E0480912801D3
:1001C00061E00E94B004089584EC91E069E071E080
:1001D0000E94C40280912A0160E00E94B0048091D4
:1001E0002C0161E00E94B00480912E0160E00E9429
:1001F000B0048091300161E00E94B00468EE73E0C9
:1002000080E090E00E940E04089584EC91E06EE19D
:1002100071E00E94C40280912A0161E00E94B00452
:1002200080912C0161E00E94B00480912E0160E079
:100230000E94B0048091300160E00E94B00468EE3A
:1002400073E080E090E00E940E0408958091260102
:100250000E94FD04892B11F5809134010E947204E3
:10026000BC0190933F0180933E0184EC91E00E9499
:100270008E0380913E0190913F018D3C91055CF091
:100280008D3C9105F9F00E9405010E94A1000E9499
:10029000E4000E9405010E948C00089580912A01CB
:1002A00061E00E94B00480912C0161E00E94B004E2
:1002B00080912E0160E00E94B0048091300160E0E6
:1002C0000E94B00408958091260160E00E9490048D
:1002D0008091280161E00E94900480912A0161E0F0
:1002E0000E94900480912C0161E00E949004809112
:1002F0002E0161E00E9490048091300161E00E9433
:1003000090048091320161E00E9490048091340158
:1003100060E00E9490048091320161E00E94B0048C
:100320008091280161E00E94B00484EC91E040E8F3
:1003300055E260E070E00E94E20108950E943804F6
:100340000E9463010E942601FDCF1F920F920FB6FB
:100350000F9211242F933F934F935F936F937F934B
:100360008F939F93AF93BF93EF93FF934091C600FA
:10037000E091C001F091C101CF01019660E870E009
:100380000E944C059C018091C2019091C3012817E5
:10039000390739F0E05CFE4F40833093C101209370
:1003A000C001FF91EF91BF91AF919F918F917F918C
:1003B0006F915F914F913F912F910F900FBE0F90D2
:1003C0001F901895AF92BF92CF92DF92EF92FF925B
:1003D0000F931F93CF93DF936C017A018B01DC01A4
:1003E0001496AD90BC901597CB01BA0122E030E095
:1003F00040E050E00E948105205C3D4B404F5F4F44
:10040000CA01B901A80197010E948105C901DA0159
:100410000197A109B109292F3A2F4B2F552747FDE5
:100420005A950196A11DB11DE5012883E601EE81D3
:10043000FF8181508083EA85FB85208141E050E087
:10044000CA010E8402C0880F991F0A94E2F7282B74
:100450002083EA85FB852081CA010F8402C0880FB2
:10046000991F0A94E2F7282B2083EA85FB85808177
:10047000088802C0440F551F0A94E2F7842B80833A
:10048000DF91CF911F910F91FF90EF90DF90CF9070
:10049000BF90AF900895FC01A085B18521898C9112
:1004A00090E0022E02C0959587950A94E2F780FFAE
:1004B000F6CF0484F585E02D608308958BE391E009
:1004C0009093C5018093C40180E491E09093C701AB
:1004D0008093C60185EC90E09093C9018093C80198
:1004E00084EC90E09093CB018093CA0180EC90E083
:1004F0009093CD018093CC0181EC90E09093CF015B
:100500008093CE0186EC90E09093D1018093D0014E
:1005100084E08093D20183E08093D30187E08093CD
:10052000D40185E08093D50108950F931F93CF9355
:10053000DF938C01EB0109C02196D801ED91FC916C
:100540000190F081E02DC801099568816623A1F72B
:10055000DF91CF911F910F9108950F931F938C01FD
:10056000DC01ED91FC910190F081E02D6DE00995A9
:10057000D801ED91FC910190F081E02DC8016AE075
:1005800009951F910F9108950F931F938C010E945D
:100590009502C8010E94AD021F910F9108952F92FC
:1005A0003F924F925F926F927F928F929F92AF9203
:1005B000BF92CF92DF92EF92FF920F931F93DF9340
:1005C000CF93CDB7DEB7A0970FB6F894DEBF0FBEBE
:1005D000CDBF1C016A017B01411551056105710503
:1005E00049F4DC01ED91FC910190F081E02D60E394
:1005F000099554C0882499245401422E5524662418
:10060000772401E010E00C0F1D1F080D191DC70114
:10061000B601A30192010E945F05F801608308946E
:10062000811C911CA11CB11CC701B601A301920140
:100630000E945F05C901DA016C017D01C114D1047A
:10064000E104F104F1F681E0E82EF12CEC0EFD1E40
:10065000E80CF91C3E010894611C711CD501C40111
:100660000197A109B1096C01C818D90814C0F60195
:10067000EE0DFF1D60816A3010F4605D01C0695CA1
:10068000D101ED91FC910190F081E02DC10109951E
:100690000894E108F1086E147F0449F7A0960FB69C
:1006A000F894DEBF0FBECDBFCF91DF911F910F91A8
:1006B000FF90EF90DF90CF90BF90AF909F908F9082
:1006C0007F906F905F904F903F902F900895EF92A2
:1006D000FF920F931F93CF93DF93EC017A018B016D
:1006E00077FF0FC0E881F9810190F081E02D6DE284
:1006F000099510950095F094E094E11CF11C011D02
:10070000111DCE01B801A7012AE00E94CF02DF919E
:10071000CF911F910F91FF90EF9008950F931F932A
:100720008C01AB01662757FD6095762F0E94670309
:10073000C8010E94AD021F910F9108951F920F9260
:100740000FB60F9211242F938F939F93AF93BF9364
:100750008091D6019091D701A091D801B091D90193
:100760000196A11DB11D8093D6019093D701A0934E
:10077000D801B093D9018091DA019091DB01A09169
:10078000DC01B091DD018050904CAF4FBF4F8093A2
:10079000DA019093DB01A093DC01B093DD0127C067
:1007A0008091DA019091DB01A091DC01B091DD0133
:1007B00080589E43A040B0408093DA019093DB01C3
:1007C000A093DC01B093DD018091DE019091DF0107
:1007D000A091E001B091E1010196A11DB11D8093AE
:1007E000DE019093DF01A093E001B093E1018091DD
:1007F000DA019091DB01A091DC01B091DD0181581B
:100800009E43A040B04060F6BF91AF919F918F9101
:100810002F910F900FBE0F901F901895EF92FF929F
:100820000F931F937B018C018FB7F8944091DE01E9
:100830005091DF016091E0017091E1018FBF2FB70E
:10084000F8948091DE019091DF01A091E001B091D8
:10085000E1012FBF841B950BA60BB70BE816F90619
:100860000A071B0760F71F910F91FF90EF90089503
:10087000789484B5826084BD84B5816084BD85B57B
:10088000826085BD85B5816085BDEEE6F0E0808142
:1008900081608083E1E8F0E08081826080838081F4
:1008A00081608083E0E8F0E0808181608083E1EB1B
:1008B000F0E0808184608083E0EBF0E08081816003
:1008C0008083EAE7F0E080818460808380818260B9
:1008D00080838081816080838081806880831092A2
:1008E000C10008958770909136019295990F990FE4
:1008F000907C982B90937C0080917A008064809308
:100900007A0080917A0086FDFCCF2091780040919A
:100910007900942F80E030E0282B392BC90108950D
:10092000282F30E0C90186569F4FFC0194912A5729
:100930003F4FF9018491882391F0E82FF0E0EE0F0A
:10094000FF1FE859FF4FA591B491662329F48C91BC
:10095000909589238C9308958C91892B8C9308957D
:10096000482F50E0CA0182559F4FFC012491CA01D3
:1009700086569F4FFC0194914A575F4FFA0134917C
:100980003323D1F1222331F1233021F480918000EF
:100990008F7705C0243031F4809180008F7D809363
:1009A000800018C0213019F484B58F7704C022303C
:1009B00021F484B58F7D84BD0DC0263021F4809153
:1009C000B0008F7705C0273029F48091B0008F7D6B
:1009D0008093B000E32FF0E0EE0FFF1FEE58FF4FC3
:1009E000A591B491662329F48C91909589238C93D9
:1009F00008958C91892B8C930895682F70E0CB011A
:100A000082559F4FFC012491CB0186569F4FFC01DC
:100A100044916A577F4FFB019491992319F420E088
:100A200030E038C0222331F1233021F4809180005E
:100A30008F7705C0243031F4809180008F7D8093C2
:100A4000800018C0213019F484B58F7704C022309B
:100A500021F484B58F7D84BD0DC0263021F48091B2
:100A6000B0008F7705C0273029F48091B0008F7DCA
:100A70008093B000892F90E0880F991F84589F4F72
:100A8000FC01A591B4918C9120E030E0842311F019
:100A900021E030E0C901089597FB092E07260AD00E
:100AA00077FD04D049D006D000201AF470956195E6
:100AB0007F4F0895F6F7909581959F4F0895A1E295
:100AC0001A2EAA1BBB1BFD010DC0AA1FBB1FEE1FC8
:100AD000FF1FA217B307E407F50720F0A21BB30B13
:100AE000E40BF50B661F771F881F991F1A9469F78F
:100AF00060957095809590959B01AC01BD01CF01EB
:100B0000089597FB092E05260ED057FD04D0D7DF98
:100B10000AD0001C38F450954095309521953F4FF0
:100B20004F4F5F4F0895F6F79095809570956195BA
:100B30007F4F8F4F9F4F0895AA1BBB1B51E107C0EA
:100B4000AA1FBB1FA617B70710F0A61BB70B881F5D
:100B5000991F5A95A9F780959095BC01CD010895EC
:100B6000EE0FFF1F0590F491E02D0994F894FFCF4C
:100B70006C69676874207570007069766F74207294
:100B800069676874210072657665727365007374B5
:100B90006F707065640002000D0003000400070020
:0E0BA00008000900010001000000004B0200E7
:00000001FF
